:040000000AEF00F013
:10000800FACF02F0FBCF03F00CED00F099EF00F00F
:100018000600E9CF04F0EACF05F0E1CF06F0E2CF21
:1000280007F0D9CF08F0DACF09F0F3CF0AF0F4CF10
:100038000BF0F6CF0CF0F7CF0DF0F8CF0EF0F5CFB0
:100048000FF0F0A001D001D00AD0016E000E146E9E
:100058000150016E010E136E0150F0900FD0F0A206
:1000680001D001D00BD0016E000E136E0150016E4D
:10007800010E146E0150F09201D000D00FC0F5FFB0
:100088000EC0F8FF0DC0F7FF0CC0F6FF0BC0F4FF61
:100098000AC0F3FF09C0DAFF08C0D9FF07C0E2FFB2
:1000A80006C0E1FF05C0EAFF04C0E9FF03C0FBFF8B
:1000B80002C0FAFF1100000E126E010E116E1250EE
:1000C800800A800F810ED8B4115CD8B00ED011C050
:1000D80083FF410E106EEE0EE82EFED7102EFCD7D1
:1000E80000F0D89011361236EAD712000F0EC16E02
:1000F800F28EF092F090F088F086F08EF08C000E80
:10010800956E02D05FEC00F01366FCD702D090EC3D
:1001180000F01466FCD7F8D78380838283848386B3
:100128008388838A838C838E1200146A136A000181
:040138007AEF00F06A
:020000040030CA
:0E000000210C3F1EFF8181FF0FC00FE00F405B
:00000001FF
